{
  "_format": "hh3-artifact-1",
  "contractName": "BotsAttack",
  "sourceName": "contracts/BotsAttack.sol",
  "abi": [
    {
      "anonymous": false,
      "inputs": [
        {
          "indexed": false,
          "internalType": "uint256",
          "name": "gameId",
          "type": "uint256"
        },
        {
          "indexed": false,
          "internalType": "address",
          "name": "player",
          "type": "address"
        }
      ],
      "name": "BotsPlaced",
      "type": "event"
    },
    {
      "anonymous": false,
      "inputs": [
        {
          "indexed": false,
          "internalType": "uint256",
          "name": "gameId",
          "type": "uint256"
        },
        {
          "indexed": false,
          "internalType": "address",
          "name": "player1",
          "type": "address"
        }
      ],
      "name": "GameCreated",
      "type": "event"
    },
    {
      "anonymous": false,
      "inputs": [
        {
          "indexed": false,
          "internalType": "uint256",
          "name": "gameId",
          "type": "uint256"
        },
        {
          "indexed": false,
          "internalType": "address",
          "name": "winner",
          "type": "address"
        }
      ],
      "name": "GameOver",
      "type": "event"
    },
    {
      "anonymous": false,
      "inputs": [
        {
          "indexed": false,
          "internalType": "uint256",
          "name": "gameId",
          "type": "uint256"
        },
        {
          "indexed": false,
          "internalType": "address",
          "name": "player",
          "type": "address"
        },
        {
          "indexed": false,
          "internalType": "uint8",
          "name": "x",
          "type": "uint8"
        },
        {
          "indexed": false,
          "internalType": "uint8",
          "name": "y",
          "type": "uint8"
        },
        {
          "indexed": false,
          "internalType": "bool",
          "name": "hit",
          "type": "bool"
        }
      ],
      "name": "HackAttempt",
      "type": "event"
    },
    {
      "anonymous": false,
      "inputs": [
        {
          "indexed": false,
          "internalType": "uint256",
          "name": "gameId",
          "type": "uint256"
        },
        {
          "indexed": false,
          "internalType": "address",
          "name": "player2",
          "type": "address"
        }
      ],
      "name": "PlayerJoined",
      "type": "event"
    },
    {
      "inputs": [
        {
          "internalType": "uint256",
          "name": "gameId",
          "type": "uint256"
        }
      ],
      "name": "cancelInactiveGame",
      "outputs": [],
      "stateMutability": "nonpayable",
      "type": "function"
    },
    {
      "inputs": [
        {
          "internalType": "uint256",
          "name": "gameId",
          "type": "uint256"
        }
      ],
      "name": "getGameState",
      "outputs": [
        {
          "internalType": "address",
          "name": "player1",
          "type": "address"
        },
        {
          "internalType": "address",
          "name": "player2",
          "type": "address"
        },
        {
          "internalType": "bool",
          "name": "player1Ready",
          "type": "bool"
        },
        {
          "internalType": "bool",
          "name": "player2Ready",
          "type": "bool"
        },
        {
          "internalType": "bool",
          "name": "gameOver",
          "type": "bool"
        },
        {
          "internalType": "address",
          "name": "winner",
          "type": "address"
        },
        {
          "internalType": "uint8",
          "name": "player1BotsRemaining",
          "type": "uint8"
        },
        {
          "internalType": "uint8",
          "name": "player2BotsRemaining",
          "type": "uint8"
        },
        {
          "internalType": "uint256",
          "name": "lastMoveTime",
          "type": "uint256"
        },
        {
          "internalType": "bool",
          "name": "player1Turn",
          "type": "bool"
        }
      ],
      "stateMutability": "view",
      "type": "function"
    },
    {
      "inputs": [
        {
          "internalType": "uint256",
          "name": "gameId",
          "type": "uint256"
        }
      ],
      "name": "getPlayerBoards",
      "outputs": [
        {
          "internalType": "uint8[5][5]",
          "name": "",
          "type": "uint8[5][5]"
        },
        {
          "internalType": "uint8[5][5]",
          "name": "",
          "type": "uint8[5][5]"
        }
      ],
      "stateMutability": "view",
      "type": "function"
    },
    {
      "inputs": [
        {
          "internalType": "address",
          "name": "player",
          "type": "address"
        }
      ],
      "name": "getPlayerGames",
      "outputs": [
        {
          "internalType": "uint256[]",
          "name": "",
          "type": "uint256[]"
        }
      ],
      "stateMutability": "view",
      "type": "function"
    },
    {
      "inputs": [
        {
          "internalType": "address",
          "name": "_player",
          "type": "address"
        }
      ],
      "name": "getPlayerWins",
      "outputs": [
        {
          "internalType": "uint256",
          "name": "",
          "type": "uint256"
        }
      ],
      "stateMutability": "view",
      "type": "function"
    },
    {
      "inputs": [],
      "name": "getTopScores",
      "outputs": [
        {
          "components": [
            {
              "internalType": "address",
              "name": "player",
              "type": "address"
            },
            {
              "internalType": "uint256",
              "name": "totalWins",
              "type": "uint256"
            }
          ],
          "internalType": "struct BotsAttack.Score[]",
          "name": "",
          "type": "tuple[]"
        }
      ],
      "stateMutability": "view",
      "type": "function"
    },
    {
      "inputs": [
        {
          "internalType": "uint256",
          "name": "gameId",
          "type": "uint256"
        },
        {
          "internalType": "uint8[5][5]",
          "name": "botLocations",
          "type": "uint8[5][5]"
        }
      ],
      "name": "placeBots",
      "outputs": [],
      "stateMutability": "nonpayable",
      "type": "function"
    },
    {
      "inputs": [
        {
          "internalType": "address",
          "name": "",
          "type": "address"
        }
      ],
      "name": "playerWins",
      "outputs": [
        {
          "internalType": "uint256",
          "name": "",
          "type": "uint256"
        }
      ],
      "stateMutability": "view",
      "type": "function"
    },
    {
      "inputs": [],
      "name": "startGame",
      "outputs": [
        {
          "internalType": "uint256",
          "name": "",
          "type": "uint256"
        }
      ],
      "stateMutability": "nonpayable",
      "type": "function"
    },
    {
      "inputs": [
        {
          "internalType": "uint256",
          "name": "",
          "type": "uint256"
        }
      ],
      "name": "topScores",
      "outputs": [
        {
          "internalType": "address",
          "name": "player",
          "type": "address"
        },
        {
          "internalType": "uint256",
          "name": "totalWins",
          "type": "uint256"
        }
      ],
      "stateMutability": "view",
      "type": "function"
    },
    {
      "inputs": [
        {
          "internalType": "uint256",
          "name": "gameId",
          "type": "uint256"
        },
        {
          "internalType": "uint8",
          "name": "x",
          "type": "uint8"
        },
        {
          "internalType": "uint8",
          "name": "y",
          "type": "uint8"
        }
      ],
      "name": "tryHackingBot",
      "outputs": [],
      "stateMutability": "nonpayable",
      "type": "function"
    }
  ],
  "bytecode": "0x5f6101208181526101408290526101608290526101808290526101a082905260809081526101c08281526101e083905261020083905261022083905261024083905260a0526102608281526102808390526102a08390526102c08390526102e083905260c05261030082815261032083905261034083905261036083905261038083905260e0526104406040526103a08281526103c08390526103e0839052610400839052610420839052610100526100ba919060056100cc565b503480156100c6575f5ffd5b506101c8565b8260058101928215610106579160200282015b828111156101065782516100f69083906005610116565b50916020019190600101906100df565b506101129291506101a2565b5090565b600183019183908215610196579160200282015f5b8382111561016857835183826101000a81548160ff021916908360ff16021790555092602001926001016020815f0104928301926001030261012b565b80156101945782816101000a81549060ff02191690556001016020815f01049283019260010302610168565b505b506101129291506101b5565b80821115610112575f81556001016101a2565b80821115610112575f81556001016101a2565b6123cc806101d55f395ff3fe608060405234801561000f575f5ffd5b50600436106100a6575f3560e01c8063b74ae96c1161006e578063b74ae96c14610168578063d65ab5f214610190578063ee5c4e5d14610198578063f64bf8fb146101ad578063f85ed907146101c0578063ffde0c74146101d3575f5ffd5b8063129daf84146100aa5780632f551948146100d35780635112711a146100f45780638b31fb89146101265780638e6aa56114610153575b5f5ffd5b6100bd6100b8366004612074565b61024e565b6040516100ca91906120a1565b60405180910390f35b6100e66100e13660046120e3565b6102b7565b6040516100ca92919061214c565b6101076101023660046120e3565b610467565b604080516001600160a01b0390931683526020830191909152016100ca565b610145610134366004612074565b60096020525f908152604090205481565b6040519081526020016100ca565b6101666101613660046120e3565b61049d565b005b610145610176366004612074565b6001600160a01b03165f9081526009602052604090205490565b61014561071a565b6101a0610f91565b6040516100ca9190612169565b6101666101bb3660046121b5565b611004565b6101666101ce3660046121fc565b61148f565b6101e66101e13660046120e3565b611aa9565b604080516001600160a01b039b8c168152998b1660208b01529715159789019790975294151560608801529215156080870152951660a085015260ff94851660c08501529390931660e0830152610100820192909252901515610120820152610140016100ca565b6001600160a01b0381165f908152600760209081526040918290208054835181840281018401909452808452606093928301828280156102ab57602002820191905f5260205f20905b815481526020019060010190808311610297575b50505050509050919050565b6102bf611f2d565b6102c7611f2d565b826006548111156102f35760405162461bcd60e51b81526004016102ea90612235565b60405180910390fd5b5f84815260056020526040902080546001600160a01b0316331480610324575060018101546001600160a01b031633145b6103405760405162461bcd60e51b81526004016102ea9061225e565b80546001600160a01b0316331461035e578060070181601101610367565b8060020181600c015b6040805160a081019091528260055f835b828210156103da576040805160a08101918290529085840190600590825f855b825461010083900a900460ff16815260206001928301818104948501949093039092029101808411610398579050505050505081526020019060010190610378565b50506040805160a08101909152929450839150600590505f835b82821015610456576040805160a08101918290529085840190600590825f855b825461010083900a900460ff168152602060019283018181049485019490930390920291018084116104145790505050505050815260200190600101906103f4565b505050509050935093505050915091565b60088181548110610476575f80fd5b5f918252602090912060029091020180546001909101546001600160a01b03909116915082565b806006548111156104c05760405162461bcd60e51b81526004016102ea90612235565b5f82815260056020526040902060018101546001600160a01b03166105155760405162461bcd60e51b815260206004820152600b60248201526a373790383630bcb2b9101960a91b60448201526064016102ea565b601681015462010000900460ff16156105675760405162461bcd60e51b815260206004820152601460248201527333b0b6b29034b99030b63932b0b23c9037bb32b960611b60448201526064016102ea565b601681015460ff168061058357506016810154610100900460ff165b6105c65760405162461bcd60e51b81526020600482015260146024820152731b995a5d1a195c88189bd85c99081a5cc81cd95d60621b60448201526064016102ea565b60178101546105d7906104b06122a9565b4210156106265760405162461bcd60e51b815260206004820152601a60248201527f3230206d696e757465732068617665206e6f742070617373656400000000000060448201526064016102ea565b60168101805462ff0000191662010000179055601881015460ff16156106a25760018101546016820180546301000000600160b81b0319166001600160a01b03909216630100000081029290921790556040805185815260208101929092525f5160206123775f395f51905f52910160405180910390a16106f7565b80546016820180546301000000600160b81b0319166001600160a01b03909216630100000081029290921790556040805185815260208101929092525f5160206123775f395f51905f52910160405180910390a15b601681015461071590630100000090046001600160a01b0316611b55565b505050565b6006545f90815260056020526040812080546001909101546001600160a01b03918216159116158261074b3361024e565b805190915015610aa2575f816001835161076591906122bc565b81518110610775576107756122cf565b6020908102919091018101515f8181526005808452604080832081516101c08101835281546001600160a01b03908116825260018301541696810196909652815160a08101835294965092949390840191600284019086835b82821015610830576040805160a08101918290529085840190600590825f855b825461010083900a900460ff168152602060019283018181049485019490930390920291018084116107ee5790505050505050815260200190600101906107ce565b505050908252506040805160a081019091526020909101906007830160055f835b828210156108b3576040805160a08101918290529085840190600590825f855b825461010083900a900460ff16815260206001928301818104948501949093039092029101808411610871579050505050505081526020019060010190610851565b505050908252506040805160a08101909152602090910190600c830160055f835b82821015610936576040805160a08101918290529085840190600590825f855b825461010083900a900460ff168152602060019283018181049485019490930390920291018084116108f45790505050505050815260200190600101906108d4565b505050908252506040805160a081019091526020909101906011830160055f835b828210156109b9576040805160a08101918290529085840190600590825f855b825461010083900a900460ff16815260206001928301818104948501949093039092029101808411610977579050505050505081526020019060010190610957565b50505090825250601682015460ff808216151560208401526101008083048216151560408501526201000083048216151560608501526001600160a01b036301000000840481166080860152600160b81b8404831660a0860152600160c01b909304821660c0850152601785015460e0850152601890940154161515929091019190915281519192501615610a9f576101008101511515600114610a9f5760405162461bcd60e51b815260206004820152601d60248201527f6578697374696e672067616d65206973207374696c6c2061637469766500000060448201526064016102ea565b50505b8280610aac575081155b15610ef15760068054905f610ac0836122e3565b9091555050604080516101c0810182523381525f60208201819052825160a081018452909282019083600581835b82821015610b50576040805160a08101918290529085840190600590825f855b825461010083900a900460ff16815260206001928301818104948501949093039092029101808411610b0e579050505050505081526020019060010190610aee565b505050908252506040805160a081019091526020909101905f600581835b82821015610bd0576040805160a08101918290529085840190600590825f855b825461010083900a900460ff16815260206001928301818104948501949093039092029101808411610b8e579050505050505081526020019060010190610b6e565b505050908252506040805160a081019091526020909101905f600581835b82821015610c50576040805160a08101918290529085840190600590825f855b825461010083900a900460ff16815260206001928301818104948501949093039092029101808411610c0e579050505050505081526020019060010190610bee565b505050908252506040805160a081019091526020909101905f600581835b82821015610cd0576040805160a08101918290529085840190600590825f855b825461010083900a900460ff16815260206001928301818104948501949093039092029101808411610c8e579050505050505081526020019060010190610c6e565b505050908252505f602080830182905260408084018390526060840183905260808401839052600560a0850181905260c085018190524260e08601526001610100909501859052600654845280835292819020855181546001600160a01b03199081166001600160a01b039283161783559387015195820180549094169516949094179091558301519293508392610d6d91600284019190611f5a565b506060820151610d839060078301906005611f5a565b506080820151610d9990600c8301906005611f5a565b5060a0820151610daf9060118301906005611f5a565b5060c082015160168201805460e0850151610100808701516101208801516101408901516101608a015161ffff1990961697151561ff001916979097179315159092029290921762010000600160b81b03191662010000921515929092026301000000600160b81b0319169190911763010000006001600160a01b03909216919091021761ffff60b81b1916600160b81b60ff9485160260ff60c01b191617600160c01b939091169290920291909117905561018082015160178201556101a0909101516018909101805460ff1916911515919091179055335f818152600760209081526040808320600680548254600181018455928652948490209091019390935591548251908152908101929092527fc3e0f84839dc888c892a013d10c8f9d6dc05a21a879d0ce468ca558013e9121c910160405180910390a150610f86565b600680545f908152600560209081526040808320600190810180546001600160a01b0319163390811790915580855260078452828520865481549384018255908652939094200191909155915491517f87969bc7faf902221a147b95ceba76e011c5efb0339a0a8ee7a2bb82d9cfbbd692610f7d929082526001600160a01b0316602082015260400190565b60405180910390a15b600654935050505090565b60606008805480602002602001604051908101604052809291908181526020015f905b82821015610ffb575f848152602090819020604080518082019091526002850290910180546001600160a01b03168252600190810154828401529083529092019101610fb4565b50505050905090565b816006548111156110275760405162461bcd60e51b81526004016102ea90612235565b5f83815260056020526040902080548491906001600160a01b031633148061105b575060018101546001600160a01b031633145b6110775760405162461bcd60e51b81526004016102ea9061225e565b601681015462010000900460ff16156110c15760405162461bcd60e51b815260206004820152600c60248201526b23b0b6b29034b99037bb32b960a11b60448201526064016102ea565b80546001600160a01b0316331480156110de5750601881015460ff165b80611105575060018101546001600160a01b0316331480156111055750601881015460ff16155b806111295750601681015460ff16158061112957506016810154610100900460ff16155b6111655760405162461bcd60e51b815260206004820152600d60248201526c2737ba103cb7bab9103a3ab93760991b60448201526064016102ea565b5f858152600560205260409020601681015460ff16158061119057506016810154610100900460ff16155b6111d25760405162461bcd60e51b8152602060048201526013602482015272109bdd1cc8185b1c9958591e481c1b1858d959606a1b60448201526064016102ea565b80546001600160a01b031633145f816111ee57826007016111f3565b826002015b90505f805b600560ff821610156113cd575f5b600560ff821610156113c4575f8460ff841660058110611228576112286122cf565b018260ff166005811061123d5761123d6122cf565b602081049091015460ff601f9092166101000a900416148061129e575060018460ff841660058110611271576112716122cf565b018260ff1660058110611286576112866122cf565b602081049091015460ff601f9092166101000a900416145b6112da5760405162461bcd60e51b815260206004820152600d60248201526c125b9d985b1a5908189bd85c99609a1b60448201526064016102ea565b898260ff16600581106112ef576112ef6122cf565b60a002018160ff1660058110611307576113076122cf565b60200201602081019061131a91906122fb565b848360ff166005811061132f5761132f6122cf565b018260ff1660058110611344576113446122cf565b602091828204019190066101000a81548160ff021916908360ff160217905550600160ff16848360ff166005811061137e5761137e6122cf565b018260ff1660058110611393576113936122cf565b602081049091015460ff601f9092166101000a900416036113bc57826113b881612314565b9350505b600101611206565b506001016111f8565b5060ff811660051461141a5760405162461bcd60e51b8152602060048201526016602482015275496e76616c6964206e756d626572206f6620626f747360501b60448201526064016102ea565b82156114345760168401805460ff19166001179055611446565b60168401805461ff0019166101001790555b426017850155604080518a81523360208201527f70f92dde88441fdbe56fc24550a111657c4f2a186d438b67cdb36edbc11bdc9c910160405180910390a1505050505050505050565b826006548111156114b25760405162461bcd60e51b81526004016102ea90612235565b5f84815260056020526040902080548591906001600160a01b03163314806114e6575060018101546001600160a01b031633145b6115025760405162461bcd60e51b81526004016102ea9061225e565b601681015462010000900460ff161561154c5760405162461bcd60e51b815260206004820152600c60248201526b23b0b6b29034b99037bb32b960a11b60448201526064016102ea565b80546001600160a01b0316331480156115695750601881015460ff165b80611590575060018101546001600160a01b0316331480156115905750601881015460ff16155b806115b45750601681015460ff1615806115b457506016810154610100900460ff16155b6115f05760405162461bcd60e51b815260206004820152600d60248201526c2737ba103cb7bab9103a3ab93760991b60448201526064016102ea565b5f868152600560205260409020601681015460ff16801561161a57506016810154610100900460ff165b6116665760405162461bcd60e51b815260206004820152601c60248201527f426f746820706c6179657273206d75737420706c61636520626f74730000000060448201526064016102ea565b600560ff871610801561167c5750600560ff8616105b6116be5760405162461bcd60e51b8152602060048201526013602482015272496e76616c696420636f6f7264696e6174657360681b60448201526064016102ea565b80546001600160a01b031633145f816116da57826002016116df565b826007015b90505f826116f057836011016116f5565b83600c015b90505f8160ff8b166005811061170d5761170d6122cf565b018960ff1660058110611722576117226122cf565b602081049091015460ff601f9092166101000a900416146117855760405162461bcd60e51b815260206004820152601760248201527f506f736974696f6e20616c7265616479206861636b656400000000000000000060448201526064016102ea565b5f60018360ff8c166005811061179d5761179d6122cf565b018a60ff16600581106117b2576117b26122cf565b602081049091015460ff601f9092166101000a900416149050806117d75760036117da565b60025b828b60ff16600581106117ef576117ef6122cf565b018a60ff1660058110611804576118046122cf565b602091828204019190066101000a81548160ff021916908360ff16021790555080611830576003611833565b60025b838b60ff1660058110611848576118486122cf565b018a60ff166005811061185d5761185d6122cf565b602091828204019190066101000a81548160ff021916908360ff1602179055508015611a2d57831561195c57601685018054600160c01b900460ff169060186118a583612332565b91906101000a81548160ff021916908360ff160217905550508460160160189054906101000a900460ff1660ff165f0361195757601685018054865463010000006001600160a01b03918216810262010000600160b81b03199093169290921762010000179283905561191c929190910416611b55565b6016850154604080518d815263010000009092046001600160a01b031660208301525f5160206123775f395f51905f52910160405180910390a15b611a2d565b601685018054600160b81b900460ff1690601761197883612332565b91906101000a81548160ff021916908360ff160217905550508460160160179054906101000a900460ff1660ff165f03611a2d57601685018054600187015463010000006001600160a01b03918216810262010000600160b81b0319909316929092176201000017928390556119f2929190910416611b55565b6016850154604080518d815263010000009092046001600160a01b031660208301525f5160206123775f395f51905f52910160405180910390a15b42601786015560188501805460ff19811660ff9182161517909155604080518d81523360208201528c831691810191909152908a16606082015281151560808201527f0b6a6942e49de6002d36046aa81ada265f832ee68d240c088cd5ca2a3cbb4e1c9060a00160405180910390a15050505050505050505050565b5f5f5f5f5f5f5f5f5f5f8a600654811115611ad65760405162461bcd60e51b81526004016102ea90612235565b5050505f988952505060056020525050604090942080546001820154601683015460178401546018909401546001600160a01b0393841699928416985060ff8083169850610100830481169750620100008304811696506301000000830490941694600160b81b8304851694600160c01b909304831693909290911690565b6001600160a01b0381165f908152600960205260408120805491611b78836122e3565b90915550506040805180820182526001600160a01b0383168082525f908152600960209081529290205491810191909152611bb281611bb6565b5050565b6008545f5b600854811015611c1357825f01516001600160a01b031660088281548110611be557611be56122cf565b5f9182526020909120600290910201546001600160a01b031603611c0b57809150611c13565b600101611bbb565b50600854811015611cea57805b600854611c2f906001906122bc565b811015611cb0576008611c438260016122a9565b81548110611c5357611c536122cf565b905f5260205f20906002020160088281548110611c7257611c726122cf565b5f9182526020909120825460029092020180546001600160a01b0319166001600160a01b039092169190911781556001918201549082015501611c20565b506008805480611cc257611cc261234d565b5f8281526020812060025f199093019283020180546001600160a01b03191681556001015590555b6008545f5b600854811015611d5b57611d4760088281548110611d0f57611d0f6122cf565b5f9182526020918290206040805180820190915260029092020180546001600160a01b03168252600101549181019190915285611ee6565b611d5357809150611d5b565b600101611cef565b50600a81101561071557600854600a1115611df257600880546001810182555f9190915283517ff3f7a9fe364faab93b216da50a3214154f22a0a2b415b23a84c8169e8b636ee3600290920291820180546001600160a01b0319166001600160a01b0390921691909117905560208401517ff3f7a9fe364faab93b216da50a3214154f22a0a2b415b23a84c8169e8b636ee4909101555b6008545f90611e03906001906122bc565b90505b81811115611e93576008611e1b6001836122bc565b81548110611e2b57611e2b6122cf565b905f5260205f20906002020160088281548110611e4a57611e4a6122cf565b5f9182526020909120825460029092020180546001600160a01b0319166001600160a01b0390921691909117815560019182015491015580611e8b81612361565b915050611e06565b508260088281548110611ea857611ea86122cf565b5f91825260209182902083516002929092020180546001600160a01b0319166001600160a01b03909216919091178155910151600190910155505050565b5f82602001515f03611ef957505f611f27565b81602001515f03611f0c57506001611f27565b816020015183602001511115611f2457506001611f27565b505f5b92915050565b6040518060a001604052806005905b611f44611fa4565b815260200190600190039081611f3c5790505090565b8260058101928215611f94579160200282015b82811115611f94578251611f849083906005611fc2565b5091602001919060010190611f6d565b50611fa092915061204e565b5090565b6040518060a001604052806005906020820280368337509192915050565b600183019183908215612042579160200282015f5b8382111561201457835183826101000a81548160ff021916908360ff16021790555092602001926001016020815f01049283019260010302611fd7565b80156120405782816101000a81549060ff02191690556001016020815f01049283019260010302612014565b505b50611fa0929150612061565b80821115611fa0575f815560010161204e565b80821115611fa0575f815560010161204e565b5f60208284031215612084575f5ffd5b81356001600160a01b038116811461209a575f5ffd5b9392505050565b602080825282518282018190525f918401906040840190835b818110156120d85783518352602093840193909201916001016120ba565b509095945050505050565b5f602082840312156120f3575f5ffd5b5035919050565b805f5b6005811015612146578151845f5b600581101561212d57825160ff1682526020928301929091019060010161210b565b50505060a09390930192602091909101906001016120fd565b50505050565b610640810161215b82856120fa565b61209a6103208301846120fa565b602080825282518282018190525f918401906040840190835b818110156120d857835180516001600160a01b031684526020908101518185015290930192604090920191600101612182565b5f5f61034083850312156121c7575f5ffd5b8235915061034083018410156121db575f5ffd5b50926020919091019150565b803560ff811681146121f7575f5ffd5b919050565b5f5f5f6060848603121561220e575f5ffd5b8335925061221e602085016121e7565b915061222c604085016121e7565b90509250925092565b6020808252600f908201526e125b9d985b1a590819d85b59481251608a1b604082015260600190565b60208082526019908201527f4e6f74206120706c6179657220696e20746869732067616d6500000000000000604082015260600190565b634e487b7160e01b5f52601160045260245ffd5b80820180821115611f2757611f27612295565b81810381811115611f2757611f27612295565b634e487b7160e01b5f52603260045260245ffd5b5f600182016122f4576122f4612295565b5060010190565b5f6020828403121561230b575f5ffd5b61209a826121e7565b5f60ff821660ff810361232957612329612295565b60010192915050565b5f60ff82168061234457612344612295565b5f190192915050565b634e487b7160e01b5f52603160045260245ffd5b5f8161236f5761236f612295565b505f19019056fe668ce4ca171dee87d4d9d2b5d3dc31963fe7fbe50b982064dddb0fb9d56aee8ba26469706673582212208af4af124304444a866960ad6392cf49703c238569cc493d14acd6c4c646b14364736f6c634300081c0033",
  "linkReferences": {},
  "deployedLinkReferences": {},
  "immutableReferences": {},
  "inputSourceName": "project/contracts/BotsAttack.sol",
  "buildInfoId": "solc-0_8_28-acb42c31b7d6e1e19c49dceaeb74e59a9aff5b3b"
}