{
  "_format": "hh3-artifact-1",
  "contractName": "BotsAttack",
  "sourceName": "contracts/BotsAttack.sol",
  "abi": [
    {
      "anonymous": false,
      "inputs": [
        {
          "indexed": false,
          "internalType": "uint256",
          "name": "gameId",
          "type": "uint256"
        },
        {
          "indexed": false,
          "internalType": "address",
          "name": "player",
          "type": "address"
        }
      ],
      "name": "BotsPlaced",
      "type": "event"
    },
    {
      "anonymous": false,
      "inputs": [
        {
          "indexed": false,
          "internalType": "uint256",
          "name": "gameId",
          "type": "uint256"
        },
        {
          "indexed": false,
          "internalType": "address",
          "name": "player1",
          "type": "address"
        }
      ],
      "name": "GameCreated",
      "type": "event"
    },
    {
      "anonymous": false,
      "inputs": [
        {
          "indexed": false,
          "internalType": "uint256",
          "name": "gameId",
          "type": "uint256"
        },
        {
          "indexed": false,
          "internalType": "address",
          "name": "winner",
          "type": "address"
        }
      ],
      "name": "GameOver",
      "type": "event"
    },
    {
      "anonymous": false,
      "inputs": [
        {
          "indexed": false,
          "internalType": "uint256",
          "name": "gameId",
          "type": "uint256"
        },
        {
          "indexed": false,
          "internalType": "address",
          "name": "player",
          "type": "address"
        },
        {
          "indexed": false,
          "internalType": "uint8",
          "name": "x",
          "type": "uint8"
        },
        {
          "indexed": false,
          "internalType": "uint8",
          "name": "y",
          "type": "uint8"
        },
        {
          "indexed": false,
          "internalType": "bool",
          "name": "hit",
          "type": "bool"
        }
      ],
      "name": "HackAttempt",
      "type": "event"
    },
    {
      "anonymous": false,
      "inputs": [
        {
          "indexed": false,
          "internalType": "uint256",
          "name": "gameId",
          "type": "uint256"
        },
        {
          "indexed": false,
          "internalType": "address",
          "name": "player2",
          "type": "address"
        }
      ],
      "name": "PlayerJoined",
      "type": "event"
    },
    {
      "inputs": [
        {
          "internalType": "uint256",
          "name": "gameId",
          "type": "uint256"
        }
      ],
      "name": "cancelInactiveGame",
      "outputs": [],
      "stateMutability": "nonpayable",
      "type": "function"
    },
    {
      "inputs": [
        {
          "internalType": "uint256",
          "name": "gameId",
          "type": "uint256"
        }
      ],
      "name": "getGameState",
      "outputs": [
        {
          "internalType": "address",
          "name": "player1",
          "type": "address"
        },
        {
          "internalType": "address",
          "name": "player2",
          "type": "address"
        },
        {
          "internalType": "bool",
          "name": "player1Ready",
          "type": "bool"
        },
        {
          "internalType": "bool",
          "name": "player2Ready",
          "type": "bool"
        },
        {
          "internalType": "bool",
          "name": "gameOver",
          "type": "bool"
        },
        {
          "internalType": "address",
          "name": "winner",
          "type": "address"
        },
        {
          "internalType": "uint8",
          "name": "player1BotsRemaining",
          "type": "uint8"
        },
        {
          "internalType": "uint8",
          "name": "player2BotsRemaining",
          "type": "uint8"
        },
        {
          "internalType": "uint256",
          "name": "lastMoveTime",
          "type": "uint256"
        },
        {
          "internalType": "bool",
          "name": "player1Turn",
          "type": "bool"
        }
      ],
      "stateMutability": "view",
      "type": "function"
    },
    {
      "inputs": [
        {
          "internalType": "uint256",
          "name": "gameId",
          "type": "uint256"
        }
      ],
      "name": "getPlayerBoards",
      "outputs": [
        {
          "internalType": "uint8[5][5]",
          "name": "",
          "type": "uint8[5][5]"
        },
        {
          "internalType": "uint8[5][5]",
          "name": "",
          "type": "uint8[5][5]"
        }
      ],
      "stateMutability": "view",
      "type": "function"
    },
    {
      "inputs": [
        {
          "internalType": "address",
          "name": "player",
          "type": "address"
        }
      ],
      "name": "getPlayerGames",
      "outputs": [
        {
          "internalType": "uint256[]",
          "name": "",
          "type": "uint256[]"
        }
      ],
      "stateMutability": "view",
      "type": "function"
    },
    {
      "inputs": [
        {
          "internalType": "uint256",
          "name": "gameId",
          "type": "uint256"
        },
        {
          "internalType": "uint8[5][5]",
          "name": "botLocations",
          "type": "uint8[5][5]"
        }
      ],
      "name": "placeBots",
      "outputs": [],
      "stateMutability": "nonpayable",
      "type": "function"
    },
    {
      "inputs": [],
      "name": "startGame",
      "outputs": [
        {
          "internalType": "uint256",
          "name": "",
          "type": "uint256"
        }
      ],
      "stateMutability": "nonpayable",
      "type": "function"
    },
    {
      "inputs": [
        {
          "internalType": "uint256",
          "name": "gameId",
          "type": "uint256"
        },
        {
          "internalType": "uint8",
          "name": "x",
          "type": "uint8"
        },
        {
          "internalType": "uint8",
          "name": "y",
          "type": "uint8"
        }
      ],
      "name": "tryHackingBot",
      "outputs": [],
      "stateMutability": "nonpayable",
      "type": "function"
    }
  ],
  "bytecode": "0x5f6101208181526101408290526101608290526101808290526101a082905260809081526101c08281526101e083905261020083905261022083905261024083905260a0526102608281526102808390526102a08390526102c08390526102e083905260c05261030082815261032083905261034083905261036083905261038083905260e0526104406040526103a08281526103c08390526103e0839052610400839052610420839052610100526100ba919060056100cc565b503480156100c6575f5ffd5b506101c8565b8260058101928215610106579160200282015b828111156101065782516100f69083906005610116565b50916020019190600101906100df565b506101129291506101a2565b5090565b600183019183908215610196579160200282015f5b8382111561016857835183826101000a81548160ff021916908360ff16021790555092602001926001016020815f0104928301926001030261012b565b80156101945782816101000a81549060ff02191690556001016020815f01049283019260010302610168565b505b506101129291506101b5565b80821115610112575f81556001016101a2565b80821115610112575f81556001016101a2565b611d53806101d55f395ff3fe608060405234801561000f575f5ffd5b506004361061007a575f3560e01c8063d65ab5f211610058578063d65ab5f2146100dd578063f64bf8fb146100f3578063f85ed90714610106578063ffde0c7414610119575f5ffd5b8063129daf841461007e5780632f551948146100a75780638e6aa561146100c8575b5f5ffd5b61009161008c366004611a6a565b610194565b60405161009e9190611a97565b60405180910390f35b6100ba6100b5366004611ad9565b6101fd565b60405161009e929190611b42565b6100db6100d6366004611ad9565b6103ad565b005b6100e561059d565b60405190815260200161009e565b6100db610101366004611b5f565b610e14565b6100db610114366004611ba6565b61129f565b61012c610127366004611ad9565b611877565b604080516001600160a01b039b8c168152998b1660208b01529715159789019790975294151560608801529215156080870152951660a085015260ff94851660c08501529390931660e08301526101008201929092529015156101208201526101400161009e565b6001600160a01b0381165f908152600760209081526040918290208054835181840281018401909452808452606093928301828280156101f157602002820191905f5260205f20905b8154815260200190600101908083116101dd575b50505050509050919050565b610205611923565b61020d611923565b826006548111156102395760405162461bcd60e51b815260040161023090611bdf565b60405180910390fd5b5f84815260056020526040902080546001600160a01b031633148061026a575060018101546001600160a01b031633145b6102865760405162461bcd60e51b815260040161023090611c08565b80546001600160a01b031633146102a45780600701816011016102ad565b8060020181600c015b6040805160a081019091528260055f835b82821015610320576040805160a08101918290529085840190600590825f855b825461010083900a900460ff168152602060019283018181049485019490930390920291018084116102de5790505050505050815260200190600101906102be565b50506040805160a08101909152929450839150600590505f835b8282101561039c576040805160a08101918290529085840190600590825f855b825461010083900a900460ff1681526020600192830181810494850194909303909202910180841161035a57905050505050508152602001906001019061033a565b505050509050935093505050915091565b806006548111156103d05760405162461bcd60e51b815260040161023090611bdf565b5f82815260056020526040902060018101546001600160a01b03166104255760405162461bcd60e51b815260206004820152600b60248201526a373790383630bcb2b9101960a91b6044820152606401610230565b601681015462010000900460ff16156104775760405162461bcd60e51b815260206004820152601460248201527333b0b6b29034b99030b63932b0b23c9037bb32b960611b6044820152606401610230565b60178101546104899062015180611c53565b4210156104cf5760405162461bcd60e51b81526020600482015260146024820152730c4819185e481a185cc81b9bdd081c185cdcd95960621b6044820152606401610230565b60168101805462ff0000191662010000179055601881015460ff161561054c5760018101546016820180546301000000600160b81b0319166001600160a01b03909216630100000081029290921790556040805185815260208101929092525f516020611cfe5f395f51905f5291015b60405180910390a1505050565b80546016820180546301000000600160b81b0319166001600160a01b03909216630100000081029290921790556040805185815260208101929092525f516020611cfe5f395f51905f52910161053f565b6006545f90815260056020526040812080546001909101546001600160a01b0391821615911615826105ce33610194565b805190915015610925575f81600183516105e89190611c6c565b815181106105f8576105f8611c7f565b6020908102919091018101515f8181526005808452604080832081516101c08101835281546001600160a01b03908116825260018301541696810196909652815160a08101835294965092949390840191600284019086835b828210156106b3576040805160a08101918290529085840190600590825f855b825461010083900a900460ff16815260206001928301818104948501949093039092029101808411610671579050505050505081526020019060010190610651565b505050908252506040805160a081019091526020909101906007830160055f835b82821015610736576040805160a08101918290529085840190600590825f855b825461010083900a900460ff168152602060019283018181049485019490930390920291018084116106f45790505050505050815260200190600101906106d4565b505050908252506040805160a08101909152602090910190600c830160055f835b828210156107b9576040805160a08101918290529085840190600590825f855b825461010083900a900460ff16815260206001928301818104948501949093039092029101808411610777579050505050505081526020019060010190610757565b505050908252506040805160a081019091526020909101906011830160055f835b8282101561083c576040805160a08101918290529085840190600590825f855b825461010083900a900460ff168152602060019283018181049485019490930390920291018084116107fa5790505050505050815260200190600101906107da565b50505090825250601682015460ff808216151560208401526101008083048216151560408501526201000083048216151560608501526001600160a01b036301000000840481166080860152600160b81b8404831660a0860152600160c01b909304821660c0850152601785015460e08501526018909401541615159290910191909152815191925016156109225761010081015115156001146109225760405162461bcd60e51b815260206004820152601d60248201527f6578697374696e672067616d65206973207374696c6c206163746976650000006044820152606401610230565b50505b828061092f575081155b15610d745760068054905f61094383611c93565b9091555050604080516101c0810182523381525f60208201819052825160a081018452909282019083600581835b828210156109d3576040805160a08101918290529085840190600590825f855b825461010083900a900460ff16815260206001928301818104948501949093039092029101808411610991579050505050505081526020019060010190610971565b505050908252506040805160a081019091526020909101905f600581835b82821015610a53576040805160a08101918290529085840190600590825f855b825461010083900a900460ff16815260206001928301818104948501949093039092029101808411610a115790505050505050815260200190600101906109f1565b505050908252506040805160a081019091526020909101905f600581835b82821015610ad3576040805160a08101918290529085840190600590825f855b825461010083900a900460ff16815260206001928301818104948501949093039092029101808411610a91579050505050505081526020019060010190610a71565b505050908252506040805160a081019091526020909101905f600581835b82821015610b53576040805160a08101918290529085840190600590825f855b825461010083900a900460ff16815260206001928301818104948501949093039092029101808411610b11579050505050505081526020019060010190610af1565b505050908252505f602080830182905260408084018390526060840183905260808401839052600560a0850181905260c085018190524260e08601526001610100909501859052600654845280835292819020855181546001600160a01b03199081166001600160a01b039283161783559387015195820180549094169516949094179091558301519293508392610bf091600284019190611950565b506060820151610c069060078301906005611950565b506080820151610c1c90600c8301906005611950565b5060a0820151610c329060118301906005611950565b5060c082015160168201805460e0850151610100808701516101208801516101408901516101608a015161ffff1990961697151561ff001916979097179315159092029290921762010000600160b81b03191662010000921515929092026301000000600160b81b0319169190911763010000006001600160a01b03909216919091021761ffff60b81b1916600160b81b60ff9485160260ff60c01b191617600160c01b939091169290920291909117905561018082015160178201556101a0909101516018909101805460ff1916911515919091179055335f818152600760209081526040808320600680548254600181018455928652948490209091019390935591548251908152908101929092527fc3e0f84839dc888c892a013d10c8f9d6dc05a21a879d0ce468ca558013e9121c910160405180910390a150610e09565b600680545f908152600560209081526040808320600190810180546001600160a01b0319163390811790915580855260078452828520865481549384018255908652939094200191909155915491517f87969bc7faf902221a147b95ceba76e011c5efb0339a0a8ee7a2bb82d9cfbbd692610e00929082526001600160a01b0316602082015260400190565b60405180910390a15b600654935050505090565b81600654811115610e375760405162461bcd60e51b815260040161023090611bdf565b5f83815260056020526040902080548491906001600160a01b0316331480610e6b575060018101546001600160a01b031633145b610e875760405162461bcd60e51b815260040161023090611c08565b601681015462010000900460ff1615610ed15760405162461bcd60e51b815260206004820152600c60248201526b23b0b6b29034b99037bb32b960a11b6044820152606401610230565b80546001600160a01b031633148015610eee5750601881015460ff165b80610f15575060018101546001600160a01b031633148015610f155750601881015460ff16155b80610f395750601681015460ff161580610f3957506016810154610100900460ff16155b610f755760405162461bcd60e51b815260206004820152600d60248201526c2737ba103cb7bab9103a3ab93760991b6044820152606401610230565b5f858152600560205260409020601681015460ff161580610fa057506016810154610100900460ff16155b610fe25760405162461bcd60e51b8152602060048201526013602482015272109bdd1cc8185b1c9958591e481c1b1858d959606a1b6044820152606401610230565b80546001600160a01b031633145f81610ffe5782600701611003565b826002015b90505f805b600560ff821610156111dd575f5b600560ff821610156111d4575f8460ff84166005811061103857611038611c7f565b018260ff166005811061104d5761104d611c7f565b602081049091015460ff601f9092166101000a90041614806110ae575060018460ff84166005811061108157611081611c7f565b018260ff166005811061109657611096611c7f565b602081049091015460ff601f9092166101000a900416145b6110ea5760405162461bcd60e51b815260206004820152600d60248201526c125b9d985b1a5908189bd85c99609a1b6044820152606401610230565b898260ff16600581106110ff576110ff611c7f565b60a002018160ff166005811061111757611117611c7f565b60200201602081019061112a9190611cab565b848360ff166005811061113f5761113f611c7f565b018260ff166005811061115457611154611c7f565b602091828204019190066101000a81548160ff021916908360ff160217905550600160ff16848360ff166005811061118e5761118e611c7f565b018260ff16600581106111a3576111a3611c7f565b602081049091015460ff601f9092166101000a900416036111cc57826111c881611cc4565b9350505b600101611016565b50600101611008565b5060ff811660051461122a5760405162461bcd60e51b8152602060048201526016602482015275496e76616c6964206e756d626572206f6620626f747360501b6044820152606401610230565b82156112445760168401805460ff19166001179055611256565b60168401805461ff0019166101001790555b426017850155604080518a81523360208201527f70f92dde88441fdbe56fc24550a111657c4f2a186d438b67cdb36edbc11bdc9c910160405180910390a1505050505050505050565b826006548111156112c25760405162461bcd60e51b815260040161023090611bdf565b5f84815260056020526040902080548591906001600160a01b03163314806112f6575060018101546001600160a01b031633145b6113125760405162461bcd60e51b815260040161023090611c08565b601681015462010000900460ff161561135c5760405162461bcd60e51b815260206004820152600c60248201526b23b0b6b29034b99037bb32b960a11b6044820152606401610230565b80546001600160a01b0316331480156113795750601881015460ff165b806113a0575060018101546001600160a01b0316331480156113a05750601881015460ff16155b806113c45750601681015460ff1615806113c457506016810154610100900460ff16155b6114005760405162461bcd60e51b815260206004820152600d60248201526c2737ba103cb7bab9103a3ab93760991b6044820152606401610230565b5f868152600560205260409020601681015460ff16801561142a57506016810154610100900460ff165b6114765760405162461bcd60e51b815260206004820152601c60248201527f426f746820706c6179657273206d75737420706c61636520626f7473000000006044820152606401610230565b600560ff871610801561148c5750600560ff8616105b6114ce5760405162461bcd60e51b8152602060048201526013602482015272496e76616c696420636f6f7264696e6174657360681b6044820152606401610230565b80546001600160a01b031633145f816114ea57826002016114ef565b826007015b90505f826115005783601101611505565b83600c015b90505f8160ff8b166005811061151d5761151d611c7f565b018960ff166005811061153257611532611c7f565b602081049091015460ff601f9092166101000a900416146115955760405162461bcd60e51b815260206004820152601760248201527f506f736974696f6e20616c7265616479206861636b65640000000000000000006044820152606401610230565b5f60018360ff8c16600581106115ad576115ad611c7f565b018a60ff16600581106115c2576115c2611c7f565b602081049091015460ff601f9092166101000a900416149050806115e75760036115ea565b60025b828b60ff16600581106115ff576115ff611c7f565b018a60ff166005811061161457611614611c7f565b602091828204019190066101000a81548160ff021916908360ff16021790555080611640576003611643565b60025b838b60ff166005811061165857611658611c7f565b018a60ff166005811061166d5761166d611c7f565b602091828204019190066101000a81548160ff021916908360ff16021790555080156117fb57831561174b57601685018054600160c01b900460ff169060186116b583611ce2565b91906101000a81548160ff021916908360ff160217905550508460160160189054906101000a900460ff1660ff165f0361174657601685018054865463010000006001600160a01b0390911690810262010000600160b81b0319909216919091176201000017909155604080518d815260208101929092525f516020611cfe5f395f51905f52910160405180910390a15b6117fb565b601685018054600160b81b900460ff1690601761176783611ce2565b91906101000a81548160ff021916908360ff160217905550508460160160179054906101000a900460ff1660ff165f036117fb57601685018054600187015463010000006001600160a01b0390911690810262010000600160b81b0319909216919091176201000017909155604080518d815260208101929092525f516020611cfe5f395f51905f52910160405180910390a15b42601786015560188501805460ff19811660ff9182161517909155604080518d81523360208201528c831691810191909152908a16606082015281151560808201527f0b6a6942e49de6002d36046aa81ada265f832ee68d240c088cd5ca2a3cbb4e1c9060a00160405180910390a15050505050505050505050565b5f5f5f5f5f5f5f5f5f5f8a6006548111156118a45760405162461bcd60e51b815260040161023090611bdf565b5050505f988952505060056020525050604090942080546001820154601683015460178401546018909401546001600160a01b0393841699928416985060ff8083169850610100830481169750620100008304811696506301000000830490941694600160b81b8304851694600160c01b909304831693909290911690565b6040518060a001604052806005905b61193a61199a565b8152602001906001900390816119325790505090565b826005810192821561198a579160200282015b8281111561198a57825161197a90839060056119b8565b5091602001919060010190611963565b50611996929150611a44565b5090565b6040518060a001604052806005906020820280368337509192915050565b600183019183908215611a38579160200282015f5b83821115611a0a57835183826101000a81548160ff021916908360ff16021790555092602001926001016020815f010492830192600103026119cd565b8015611a365782816101000a81549060ff02191690556001016020815f01049283019260010302611a0a565b505b50611996929150611a57565b80821115611996575f8155600101611a44565b80821115611996575f8155600101611a44565b5f60208284031215611a7a575f5ffd5b81356001600160a01b0381168114611a90575f5ffd5b9392505050565b602080825282518282018190525f918401906040840190835b81811015611ace578351835260209384019390920191600101611ab0565b509095945050505050565b5f60208284031215611ae9575f5ffd5b5035919050565b805f5b6005811015611b3c578151845f5b6005811015611b2357825160ff16825260209283019290910190600101611b01565b50505060a0939093019260209190910190600101611af3565b50505050565b6106408101611b518285611af0565b611a90610320830184611af0565b5f5f6103408385031215611b71575f5ffd5b823591506103408301841015611b85575f5ffd5b50926020919091019150565b803560ff81168114611ba1575f5ffd5b919050565b5f5f5f60608486031215611bb8575f5ffd5b83359250611bc860208501611b91565b9150611bd660408501611b91565b90509250925092565b6020808252600f908201526e125b9d985b1a590819d85b59481251608a1b604082015260600190565b60208082526019908201527f4e6f74206120706c6179657220696e20746869732067616d6500000000000000604082015260600190565b634e487b7160e01b5f52601160045260245ffd5b80820180821115611c6657611c66611c3f565b92915050565b81810381811115611c6657611c66611c3f565b634e487b7160e01b5f52603260045260245ffd5b5f60018201611ca457611ca4611c3f565b5060010190565b5f60208284031215611cbb575f5ffd5b611a9082611b91565b5f60ff821660ff8103611cd957611cd9611c3f565b60010192915050565b5f60ff821680611cf457611cf4611c3f565b5f19019291505056fe668ce4ca171dee87d4d9d2b5d3dc31963fe7fbe50b982064dddb0fb9d56aee8ba26469706673582212200ae8cb1f0c84bdbfd4bfe6642f88354b451a080b18443e2dea82b2ab3f08583664736f6c634300081c0033",
  "linkReferences": {},
  "deployedLinkReferences": {},
  "immutableReferences": {},
  "inputSourceName": "project/contracts/BotsAttack.sol",
  "buildInfoId": "solc-0_8_28-c6f9957f37bc01b3a96147181af390c5677704b3"
}